:03000000020242B7
:0C024200787FE4F6D8FD75813E02028949
:10072C007267626C6564207374617465205B636FBF
:10073C00756E743D005D3A20000D0A007377315FD1
:10074C00636C656172007377325F7265636F766597
:09075C00720074696D65723000D1
:0808CF000334000000013700B2
:10086F00AE071FEE600B007E027DC7DDFEDEFC8053
:01087F00EF89
:010880002255
:0B08DC00EF1FAC0670011E4C70F622EE
:1004AE008F0D7E001203AE1208E7E50D24F8601FD3
:1004BE0024EC602A24DA601A24F8601F24F86025E0
:1004CE0024F8601424FC600D24527020C2A522C2B0
:1004DE00A622C2A722D2A522D2A622D2A722C2A784
:1004EE00C2A6C2A522D2A7D2A6D2A52263A0FF225F
:1002CE00AE37053774342EF8A607E537C3940340CE
:1002DE0063E4F5377BFF7A07792C1208177E007FCF
:1002EE00031206EC7BFF7A0779411208177B007A1E
:1002FE000079341208177BFF7A077945120817E543
:10030E003464306003D38001C3B392A5E535643005
:10031E006003D38001C3B392A6E53664306003D385
:10032E008001C3B392A77B007A0079347523037FD3
:04033E006612045CE3
:010342002298
:100892007BFF7A077948120942D2A7D2A6D2A522B3
:10054E007BFF7A0779521209427B007A0079117586
:10055E0019037F661204FEE4F514FB7A007911127A
:10056E000942E51164306003D38001C3B392A5E55F
:10057E001264306003D38001C3B392A6E5136430D6
:09058E006003D38001C3B392A7FE
:010597002241
:10083C00D3EF94F4EE9401400E7BFF7A07795E12AD
:0A084C000942B2E97F01227F002279
:1008A20012085612092612092D12091FD2AF80FE14
:07091F00D2C4D2C6D2EA22C5
:03001B00020026BA
:10002600C0E0C0F0C083C082C0D075D000C000C0A0
:0D00360001C002C003C004C005C006C00721
:10004300750800750900750A00750B00750C003002
:10005300EA03020144750903750AE820EA1EE50A6A
:10006300450960187F017E001208DCE50A150A7055
:10007300021509E50A450970E202014420EA030278
:100083000125750901750AF430EA1EE50A45096080
:10009300187F017E001208DCE50A150A70021509B3
:1000A300E50A450970E2020144750B00750C007501
:1000B3000902750A5820EA1DE50A450960177F0100
:1000C3007E001208DCE50A150A70021509E50A45E7
:1000D3000970E2806C750900750A1430EA127F0A10
:1000E3007E001208DC0508E508D3941440ED805126
:1000F3007438250BF8C000E6C313D000F6E508C337
:10010300940840097438250BF8E64480F675080016
:10011300050CE50CC394084096050BE50BC394044A
:10012300408AE53BF4653A6013750B007438250B80
:10013300F87600050BE50BB404F28005AF3A120420
:01014300AE0D
:10014400D007D006D005D004D003D002D001D0000F
:0B015400D0D0D082D083D0F0D0E032B9
:07092600D28AD2AAD2B3224B
:03001300020624BE
:10062400C0E0C0F0C083C082C0D075D000C000C09C
:1006340001C002C003C004C005C006C0077F0A127F
:10064400086F20B303120892D007D006D005D00457
:10065400D003D002D001D000D0D0D082D083D0F04B
:03066400D0E032B1
:07092D00D288D2A8D2B22249
:030003000206678B
:10066700C0E0C0F0C083C082C0D075D000C000C059
:1006770001C002C003C004C005C006C0077F0A123C
:10068700086F20B20312054ED007D006D005D0045C
:10069700D003D002D001D000D0D0D082D083D0F008
:0306A700D0E0326E
:10085600759850438780D2AC53890F438920758B96
:09086600FA758DFAC2ABD28E22A4
:08090F008F993099FDC2992275
:0A08E7007F0D12090F7F0A02090FAE
:100817008B258A268927AB25AA26A92712015F607F
:10082700130527E5277002052614F912015FFF1249
:05083700090F80E22220
:060942001208170208E78D
:1006EC00153E153EA83EA60608A607A83EE6FE083F
:1006FC00E6FFD39409EE64809480400A7C007D0A66
:10070C001201B71206ECA83EE6FE08E6FF7C007D5F
:10071C000A1201B7ED2430FF12090F053E053E22E7
:0D03AE00153E153EA83EA60608A607153E02
:1003BB00A83E08E6FE08E6FFD3940FEE6480948017
:1003CB00400A7C007D101201B71203AEA83E08E66E
:1003DB00FE08E6FF7C007D101201B7AF05A83EEFCB
:1003EB00F6C36480948AA83EE6500424308002242D
:0503FB0037FF12090F9D
:07040000053E053E053E220A
:030023000206AA28
:1006AA00C0E0C0F0C083C082C0D075D000C000C016
:1006BA0001C002C003C004C005C006C007309807C5
:1006CA00AF991202CEC298D007D006D005D004D076
:1006DA0003D002D001D000D0D0D082D083D0F0D0C5
:0206EA00E032FC
:0A08F100AB05AD077F50120765222A
:08091700AD077F501205DF223D
:08045C008F1F8B208A218922E9
:10046400E51F2523FFE433FED3EF94FFEE6480946D
:100474008040037F0022E4F524E524C3952350271C
:10048400AD1F051FAB20AA21A922852482758300F4
:10049400120178FB7F50120765EF7002FF227F0381
:0904A40012086F052480D27F01CB
:0104AD00222C
:0804FE008F158B168A1789186F
:10050600E5152519FFE433FED3EF94FFEE648094DE
:100516008040037F0022E4F51AE51AC39519502599
:10052600AD150515AB160518E518AA1770020517BF
:1005360014F97F501205DFEF7002FF227F031208C5
:070546006F051A80D47F014C
:01054D00228B
:06093400E4FF0FBF0AFC06
:01093A00229A
:0A08FB00D286D287120934C2862289
:07088100EF1201A5120905A9
:0A088800C286D287120934D28622FC
:02079600AD07AD
:100798007B08AF031BEF6024C28774017E00A803A7
:1007A800088005C333CE33CED8F9FFEDF582EF5577
:0C07B8008224FF9286120934D28780D67A
:0107C4002212
:1007F1007E08E4FDAF061EEF6019D28730860D74C6
:1008010001A806088002C333D8FC4205120934C28C
:050811008780E1AF0546
:0108160022BF
:07093B00C287C286D28722A9
:0A090500C287D286120934D287227D
:0C07C500AE071208FBEE25E0FF120796BD
:1007D100E4FEC287D286120934D28730860D0EEE2E
:0F07E100D394FA40F61208887F0122C2877F0066
:0107F00022E6
:0F08B2001207C5EF60037F00221208887F012222
:10076500AE07AC03AA051207C7EF60037F0022AFEF
:10077500021207961207D1EF60037F0022AF041221
:1007850007961207D1EF60037F00221208887F01C8
:010795002241
:1005DF008D1B8B1C8A1D891EAC071208FBEC1207A2
:1005EF00CBEF60037F0022AF1B1207961207D1EFEC
:1005FF0060037F00221208FBEC25E044011207CDB7
:10060F00EF60037F00221207F1AB1CAA1DA91E1277
:05061F0008817F0122AB
:080598008B2A8A2B892CAC058B
:1005A0001207C5EF60037F0022AF041207961207FF
:1005B000D1EF60037F0022E4FCECC3952D501AAB11
:1005C0002AAA2BA92C8C827583001201781207CDE0
:0E05D000EF60037F00220C80E01208887F019C
:0105DE0022FA
:0A0343008D2F8B308A318932AC0710
:10034D001208FBEC1207CBEF60037F0022AF2F12D8
:10035D0007961207D1EF60037F00221208FBEC25F0
:10036D00E044011207CDEF60037F0022E4FCE5338A
:10037D0014FFECC39F501B1207F1AB300532E53271
:10038D00AA317002053114F9EF1201A512093B0CC7
:10039D0080DC1207F1AB30AA31A9321208817F013E
:0103AD00222D
:0408D700023C0000DF
:0E08C100438901758CFC758A66D2A9D28C22FF
:03000B00020407E5
:10040700C0E0C0F0C083C082C0D075D000C000C0BB
:0D04170001C002C003C004C005C006C0073C
:10042400758CFC758A66053DE53D7002053CFFAEA2
:0D0434003C12083CEF6006753C00753D0071
:10044100D007D006D005D004D003D002D001D0000F
:0B045100D0D0D082D083D0F0D0E032B9
:10024E000208A2E493A3F8E493A34003F68001F21C
:10025E0008DFF48029E493A3F85407240CC8C333B1
:10026E00C4540F4420C8834004F456800146F6DF80
:10027E00E4800B01020408102040809008CFE47E39
:10028E00019360BCA3FF543F30E509541FFEE49375
:10029E00A360010ECF54C025E060A840B8E493A33C
:1002AE00FAE493A3F8E493A3C8C582C8CAC583CA67
:1002BE00F0A3C8C582C8CAC583CADFE9DEE780BE1F
:0108DB00001C
:10015F00BB010689828A83E0225002E722BBFE029E
:09016F00E32289828A83E49322D1
:10017800BB010CE58229F582E5833AF583E022503C
:1001880006E92582F8E622BBFE06E92582F8E22286
:0D019800E58229F582E5833AF583E49322A0
:1001A500BB010689828A83F0225002F722BBFE0139
:0201B500F32233
:1001B700C2D5EC30E709B2D5E4C39DFDE49CFCEE63
:1001C70030E715B2D5E4C39FFFE49EFE1201EDC3ED
:1001D700E49DFDE49CFC80031201ED30D507C3E4E8
:0601E7009FFFE49EFE22D2
:1001ED00BC000BBE0029EF8DF084FFADF022E4CCF6
:1001FD00F875F008EF2FFFEE33FEEC33FCEE9DECBF
:10020D00984005FCEE9DFE0FD5F0E9E4CEFD22ED04
:10021D00F8F5F0EE8420D21CFEADF075F008EF2F4E
:10022D00FFED33FD4007985006D5F0F222C398FD3F
:05023D000FD5F0EA22DC
:00000001FF
