:03000000020C3FB0
:0C0C3F00787FE4F6D8FD75811D020C21C1
:080C69003078006E6F6E65002B
:100BD900D3EF9400EE940040147D6E7C00ED1D70FF
:0D0BE900011CED4C70F7EF1F70E61E80E35D
:010BF60022DC
:1009A700E4F515F514AF14120C30EF601F7515013F
:1009B7007BFF7A0C7969120BB4AF147E0012094ED3
:1009C7007F20120C717FB87E0B120BD97F017E003E
:1009D700120BD90514E514C3948040C9E5156003CB
:0C09E700020C5F7BFF7A0C796C120C870D
:0109F30022E1
:0F0C2100120BF77F887E13120BD91209A780F4EC
:060C7900E4FF0FBF0AFCBE
:010C7F002252
:0A0C4B00D280D281120C79C28022FF
:070C1000EF120846120C551B
:0A0C1700C280D281120C79D2802233
:020B3300AD070C
:100B35007B08AF031BEF6024C28174017E00A8030C
:100B4500088005C333CE33CED8F9FFEDF582EF55D6
:0C0B55008224FF9280120C79D28180D69D
:010B61002271
:100B8E007E08E4FDAF061EEF6019D28130800D7431
:100B9E0001A806088002C333D8FC4205120C79C2A4
:050BAE008180E1AF05AC
:010BB300221F
:070C8000C281C280D2812273
:0A0C5500C281D280120C79D28122F4
:0C0B6200AE07120C4BEE25E0FF120B3327
:100B6E00E4FEC281D280120C79D28130800D0EEE5D
:0F0B7E00D394FA40F6120C177F0122C2817F0038
:010B8D002245
:0F0C3000120B62EF60037F0022120C177F01226C
:100B0200AE07AC03AA05120B64EF60037F0022AFAD
:100B120002120B33120B6EEF60037F0022AF04123E
:100B22000B33120B6EEF60037F0022120C177F0152
:010B320022A0
:100A3B008D198B1A8A1B891CAC07120C4BEC120BF1
:100A4B0068EF60037F0022AF19120B33120B6EEFAE
:100A5B0060037F0022120C4BEC25E04401120B6A61
:100A6B00EF60037F0022120B8EAB1AAA1BA91C127C
:050A7B000C107F0122B8
:0809F4008B0A8A0B890CAC058B
:1009FC00120B62EF60037F0022AF04120B33120B59
:100A0C006EEF60037F0022E4FCECC3950D501AAB33
:100A1C000AAA0BA90C8C82758300120819120B6A96
:0E0A2C00EF60037F00220C80E0120C177F01A8
:010A3A002299
:0A08E3008D0F8B108A118912AC07EB
:1008ED00120C4BEC120B68EF60037F0022AF0F125E
:1008FD000B33120B6EEF60037F0022120C4BEC25B5
:10090D00E04401120B6AEF60037F0022E4FCE51363
:10091D0014FFECC39F501B120B8EAB100512E5128A
:10092D00AA117002051114F9EF120846120C800C71
:10093D0080DC120B8EAB10AA11A912120C107F01C4
:01094D002287
:100BF700759850438780D2AC53890F438920758BF2
:090C0700FA758DFAC2ABD28E22FF
:080C71008F993099FDC2992210
:0A0C5F007F0D120C717F0A020C7168
:100BB4008B168A178918AB16AA17A9181208006091
:100BC400130518E5187002051714F9120800FF122E
:050BD4000C7180E2221B
:060C8700120BB4020C5F29
:100AC200151D151DA81DA60608A607A81DE6FE08E9
:100AD200E6FFD39409EE64809480400A7C007D0A8C
:100AE200120858120AC2A81DE6FE08E6FF7C007D25
:100AF2000A120858ED2430FF120C71051D051D2243
:0D094E00151D151DA81DA60608A607151DE0
:10095B00A81D08E6FE08E6FFD3940FEE6480948092
:10096B00400A7C007D1012085812094EA81D08E69B
:10097B00FE08E6FF7C007D10120858AF05A81DEF9E
:10098B00F6C36480948AA81DE650042430800224A8
:05099B0037FF120C7192
:0709A000051D051D051D22C8
:03002300020A804E
:100A8000C0E0C0F0C083C082C0D075D000C000C03C
:100A900001C002C003C004C005C006C007309807EB
:100AA000AF99120000C298D007D006D005D004D06C
:100AB00003D002D001D000D0D0D082D083D0F0D0EB
:020AC000E03222
:10080000BB010689828A83E0225002E722BBFE02F6
:09081000E32289828A83E4932229
:10081900BB010CE58229F582E5833AF583E0225094
:1008290006E92582F8E622BBFE06E92582F8E222DE
:0D083900E58229F582E5833AF583E49322F8
:10084600BB010689828A83F0225002F722BBFE0191
:02085600F3228B
:10085800C2D5EC30E709B2D5E4C39DFDE49CFCEEBB
:1008680030E715B2D5E4C39FFFE49EFE12088EC39D
:10087800E49DFDE49CFC800312088E30D507C3E498
:060888009FFFE49EFE222A
:10088E00BC000BBE0029EF8DF084FFADF022E4CC4E
:10089E00F875F008EF2FFFEE33FEEC33FCEE9DEC17
:1008AE00984005FCEE9DFE0FD5F0E9E4CEFD22ED5D
:1008BE00F8F5F0EE8420D21CFEADF075F008EF2FA7
:1008CE00FFED33FD4007985006D5F0F222C398FD98
:0508DE000FD5F0EA2235
:00000001FF
