:030000000209955D
:0C099500787FE4F6D8FD7581720209DC61
:090D4D00574F53484955594B001A
:100B770020400800040E1511110E00001E0B0B0B70
:100B87000B1600000000001F001F000400070810DC
:100B9700100807120A0603060A1202080A091F09A3
:100BA7000A08000405051D05050500001E0B0B0BB3
:030BB7000B16001A
:100CE100D3EF9400EE940040147D6E7C00ED1D70F6
:0D0CF100011CED4C70F7EF1F70E61E80E354
:010CFE0022D3
:100BFC00120CFF7B007A0079087D08120ADDE4FDF7
:100C0C00FF120D13E4F551AF51120D2A0551E551A8
:100C1C00C3940840F27BFF7A0D794D7D0DE4FF12F1
:100C2C000A217F207E03120CE17F18120D4380F203
:080D56004048505860687078B5
:060D3400C2A58F80D2A7CA
:080D3A007F027EC7DEFEDFFC34
:010D4200228E
:0A0D4300C2A6120D34C2A7020D3A39
:060D240014F9120800FFA3
:0A0D2A00D2A6120D34C2A7020D3A42
:100CFF007F38120D437F0C120D437F06120D437F79
:040D0F0001020D438D
:050D5E007F0C020D43B3
:050D63007F08020D43B2
:100D1300EF60047F4080027F00EF24802DFF020DEF
:010D2300438C
:050D68007F01020D43B4
:030D6D00020D2A4A
:100CC2008B6D8A6E896FAB6DAA6EA96F1208006078
:0F0CD2000D056FE56F7002056E120D2480E8228C
:080A21008B528A538954AC0783
:100A2900C374109DF555ECD39401504AED940F50C1
:100A390045AF04120D13AB52AA53A9541208006012
:100A49000E0554E55470020553120D24D555E7ECF3
:100A59007024E4FD7F01120D13755510AB52AA5392
:100A6900A954120800600F0554E554700205531289
:060A79000D24D555E72213
:010A7F002254
:080B30008E588F598D828C83D1
:100B3800E4755D01F55CF55BF55AE5821582AE83D7
:100B4800700215834E601FAB5DAA5CA95BA85AAE04
:100B580058AF59EE3395E0FDFC1208468F5D8E5C68
:0E0B68008D5B8C5A80D4AF5DAE5CAD5BAC5A39
:010B7600225C
:100C6E008F618E608D5F8C5EAF621562EF601CAF20
:100C7E0061AE60AD5FAC5EA962A801120982EF544D
:0C0C8E0001FFEF2430FF120D2A80DD2250
:100BBB008F668E658D648C63AF671567EF6031E56B
:100BCB0067FD7C007F0A7E00120B30AB07AA06A9DB
:100BDB0005A804AF66AE65AD64AC631208D1E47BC7
:100BEB000AFAF9F81208D1EB2430FF120D2A80C84B
:010BFB0022D7
:100C3C008F6B8E6A8D698C68EC3350127F2D120D80
:100C4C002AAF6BAE6AAD69AC68120963800D7F2B5D
:100C5C00120D2AAF6BAE6AAD69AC68856C67120B6E
:020C6C00BB22A9
:080A80008F4B8E4A8D498C4812
:100A8800AF4C154CEF604DE54CFD7C007F107E00AF
:100A9800120B30AB07AA06A905A804AF4BAE4AADA6
:100AA80049AC481208D1EF540FF550E4F54FF54E14
:100AB800F54D7F0AFEFDFCAB50AA4FA94EA84DC3C9
:100AC80012097150047F3080027F37EF2550FF12E2
:040AD8000D2A80ACB7
:010ADC0022F7
:060C9A008B708A71897263
:100CA000EF900D5693FF120D43E4FDAB70AA71A9AE
:100CB000728D82758300120819FF120D2A0DBD086E
:010CC000EA49
:010CC1002210
:080ADD008B528A5389548D5598
:100AE500E555D394084003755508E4F556E556C316
:100AF50095555036E556900D5693FF120D43E4F586
:100B050057E55675F008A4AB522554F9E55335F071
:100B1500FA7E00E92557F9EE3AFA120D260557E552
:0A0B250057C3940840DB055680C357
:010B2F0022A3
:1009A100020BFCE493A3F8E493A34003F68001F265
:1009B10008DFF48029E493A3F85407240CC8C33357
:1009C100C4540F4420C8834004F456800146F6DF26
:1009D100E4800B0102040810204080900B77E47E34
:1009E100019360BCA3FF543F30E509541FFEE4931B
:1009F100A360010ECF54C025E060A840B8E493A3E2
:100A0100FAE493A3F8E493A3C8C582C8CAC583CA0C
:100A1100F0A3C8C582C8CAC583CADFE9DEE780BEC4
:010BBA00003A
:10080000BB010689828A83E0225002E722BBFE02F6
:09081000E32289828A83E4932229
:10081900BB010CE58229F582E5833AF583E0225094
:1008290006E92582F8E622BBFE06E92582F8E222DE
:0D083900E58229F582E5833AF583E49322F8
:10084600E88FF0A4CC8BF0A42CFCE98EF0A42CFC51
:100856008AF0EDA42CFCEA8EF0A4CDA8F08BF0A4CF
:100866002DCC3825F0FDE98FF0A42CCD35F0FCEB2E
:100876008EF0A4FEA9F0EB8FF0A4CFC5F02ECD39F3
:0F088600FEE43CFCEAA42DCE35F0FDE43CFC2260
:1008950075F008758200EF2FFFEE33FECD33CDCC1A
:1008A50033CCC58233C5829BED9AEC99E58298409D
:1008B5000CF582EE9BFEED9AFDEC99FC0FD5F0D67A
:1008C500E4CEFBE4CDFAE4CCF9A88222B800C1B9A4
:1008D5000059BA002DEC8BF084CFCECDFCE5F0CBE2
:1008E500F97818EF2FFFEE33FEED33FDEC33FCEB1B
:1008F50033FB10D703994004EB99FB0FD8E5E4F9D6
:10090500FA227818EF2FFFEE33FEED33FDEC33FCC2
:10091500C933C910D7059BE99A4007EC9BFCE99AB6
:10092500F90FD8E0E4C9FAE4CCFB2275F010EF2FFB
:10093500FFEE33FEED33FDCC33CCC833C810D707FB
:100945009BEC9AE899400AED9BFDEC9AFCE899F836
:0E0955000FD5F0DAE4CDFBE4CCFAE4C8F922C9
:0E096300C3E49FFFE49EFEE49DFDE49CFC22A5
:10097100EB9FF5F0EA9E42F0E99D42F0E89C45F0DC
:010981002253
:10098200E8600FECC313FCED13FDEE13FEEF13FF53
:03099200D8F12277
:00000001FF
