:03000000020A1CD5
:0C0A1C00787FE4F6D8FD75813A020A6389
:100EFB007267626C6564207374617465205B636FE9
:100F0B00756E743D005D3A20000D0A007377315FFA
:100F1B00636C656172007377325F7265636F7665C0
:020F2B00720052
:08107D00033000000001330004
:10101D00AE071FEE600B007E027DC7DDFEDEFC809D
:01102D00EFD3
:01102E00229F
:0B108A00EF1FAC0670011E4C70F62238
:100D6900EF24F8601F24EC602A24DA601A24F86062
:100D79001F24F8602524F8601424FC600D245270A7
:100D890020C2A522C2A622C2A722D2A522D2A62269
:100D9900D2A722C2A7C2A6C2A522D2A7D2A6D2A5ED
:050DA9002263A0FF22FF
:100AA800AE33053374302EF8A607E533C3940340FC
:100AB80063E4F5337BFF7A0E79FB120FDF7E007F4C
:100AC80003120EBB7BFF7A0F7910120FDF7B007ABF
:100AD800007930120FDF7BFF7A0F7914120FDFE5F0
:100AE8003064306003D38001C3B392A5E53164302C
:100AF8006003D38001C3B392A6E53264306003D3A8
:100B08008001C3B392A77B007A0079307522037FF6
:040B180066120C361F
:010B1C0022B6
:101040007BFF7A0F79171210F0D2A7D2A6D2A52271
:100CD8007BFF7A0F79211210F07B007A007910756A
:100CE80018037F66120C88E4F513FB7A007910125A
:100CF80010F0E51064306003D38001C3B392A5E51A
:100D08001164306003D38001C3B392A6E512643046
:090D18006003D38001C3B392A76C
:010D210022AF
:101050001210041210D41210DB1210CDD2AF80FE89
:0710CD00D2C4D2C6D2EA2210
:03001B00020800D8
:10080000C0E0C0F0C083C082C0D075D000C000C0BE
:0D08100001C002C003C004C005C006C0073F
:10081D00750800750900750A00750B00750C003020
:10082D00EA0302091E750903750AE820EA1EE50AA6
:10083D00450960187F017E0012108AE50A150A70BD
:10084D00021509E50A450970E202091E20EA0302B4
:10085D0008FF750901750AF430EA1EE50A450960BD
:10086D00187F017E0012108AE50A150A700215091B
:10087D00E50A450970E202091E750B00750C00753D
:10088D000902750A5820EA1DE50A450960177F011E
:10089D007E0012108AE50A150A70021509E50A454F
:1008AD000970E2806C750900750A1430EA127F0A2E
:1008BD007E0012108A0508E508D3941440ED80518E
:1008CD007434250BF8C000E6C313D000F6E508C359
:1008DD00940840097434250BF8E64480F675080039
:1008ED00050CE50CC394084096050BE50BC3940469
:1008FD00408AE537F465366013750B007434250BAB
:10090D00F87600050BE50BB404F28005AF36120D39
:01091D006970
:10091E00D007D006D005D004D003D002D001D0002D
:0B092E00D0D0D082D083D0F0D0E032D7
:0710D400D28AD2AAD2B32296
:03001300020DF3E8
:100DF300C0E0C0F0C083C082C0D075D000C000C0C6
:100E030001C002C003C004C005C006C0077F0A12A8
:100E1300101D20B303121040D007D006D005D00414
:100E2300D003D002D001D000D0D0D082D083D0F074
:030E3300D0E032DA
:0710DB00D288D2A8D2B22294
:03000300020E36B4
:100E3600C0E0C0F0C083C082C0D075D000C000C082
:100E460001C002C003C004C005C006C0077F0A1265
:100E5600101D20B203120CD8D007D006D005D0043E
:100E6600D003D002D001D000D0D0D082D083D0F031
:030E7600D0E03297
:10100400759850438780D2AC53890F438920758BE0
:09101400FA758DFAC2ABD28E22EE
:0810BD008F993099FDC29922C0
:0A1095007F0D1210BD7F0A0210BD8E
:100FDF008B1E8A1F8920AB1EAA1FA92012093960F8
:100FEF00130520E5207002051F14F9120939FF12AD
:050FFF0010BD80E2229C
:0610F000120FDF02109553
:100EBB00153A153AA83AA60608A607A83AE6FE0878
:100ECB00E6FFD39409EE64809480400A7C007D0A8F
:100EDB00120991120EBBA83AE6FE08E6FF7C007DD4
:100EEB000A120991ED2430FF1210BD053A053A2282
:0D0B8800153A153AA83AA60608A607153A30
:100B9500A83A08E6FE08E6FFD3940FEE6480948039
:100BA500400A7C007D10120991120B88A83A08E6CC
:100BB500FE08E6FF7C007D10120991AF05A83AEF0B
:100BC500F6C36480948AA83AE6500424308002244F
:050BD50037FF1210BD06
:070BDA00053A053A053A2235
:03002300020E7951
:100E7900C0E0C0F0C083C082C0D075D000C000C03F
:100E890001C002C003C004C005C006C007309807EE
:100E9900AF99120AA8C298D007D006D005D004D0BD
:100EA90003D002D001D000D0D0D082D083D0F0D0EE
:020EB900E03225
:0A109F00AB05AD077F50120F2D22A4
:0810C500AD077F50120DAE22B1
:080C36008F1E8B1F8A2089210B
:100C3E00E51E2522FFE433FED3EF94FFEE6480948D
:100C4E008040037F0022E4F523E523C3952250273D
:100C5E00AD1E051EAB1FAA20A92185238275830018
:100C6E00120952FB7F50120F2DEF7002FF227F03ED
:090C7E0012101D052380D27F0134
:010C8700224A
:080C88008F148B158A168917E1
:100C9000E5142518FFE433FED3EF94FFEE6480944F
:100CA0008040037F0022E4F519E519C3951850250B
:100CB000AD140514AB150517E517AA167002051635
:100CC00014F97F50120DAEEF7002FF227F03121055
:070CD0001D051980D47F010E
:010CD70022FA
:0610E200E4FF0FBF0AFC51
:0110E80022E5
:0A10A900D286D2871210E2C286221E
:07102F00EF12097F1210B35C
:0A103600C286D2871210E2D2862291
:020F5E00AD07DD
:100F60007B08AF031BEF6024C28774017E00A803D7
:100F7000088005C333CE33CED8F9FFEDF582EF55A7
:0C0F80008224FF92861210E2D28780D6F5
:010F8C002242
:100FB9007E08E4FDAF061EEF6019D28730860D74F6
:100FC90001A806088002C333D8FC42051210E2C208
:050FD9008780E1AF0577
:010FDE0022F0
:0710E900C287C286D28722F4
:0A10B300C287D2861210E2D2872213
:0C0F8D00AE071210A9EE25E0FF120F5E67
:100F9900E4FEC287D2861210E2D28730860D0EEEA9
:0F0FA900D394FA40F61210367F0122C2877F00E0
:010FB8002216
:0F106000120F8DEF60037F00221210367F0122E6
:100F2D00AE07AC03AA05120F8FEF60037F0022AF4F
:100F3D0002120F5E120F99EF60037F0022AF0412B1
:100F4D000F5E120F99EF60037F00221210367F01A2
:010F5D002271
:100DAE008D1A8B1B8A1C891DAC071210A9EC120F11
:100DBE0093EF60037F0022AF1A120F5E120F99EFAE
:100DCE0060037F00221210A9EC25E04401120F955A
:100DDE00EF60037F0022120FB9AB1BAA1CA91D12D4
:050DEE00102F7F01221F
:080D22008B268A278928AC0505
:100D2A00120F8DEF60037F0022AF04120F5E120FC5
:100D3A0099EF60037F0022E4FCECC39529501AABBB
:100D4A0026AA27A9288C82758300120952120F95A8
:0E0D5A00EF60037F00220C80E01210367F0154
:010D68002268
:0A0B1D008D2B8B2C8A2D892EAC073E
:100B27001210A9EC120F93EF60037F0022AF2B1274
:100B37000F5E120F99EF60037F00221210A9EC25B8
:100B4700E04401120F95EF60037F0022E4FCE52FDC
:100B570014FFECC39F501B120FB9AB2C052EE52ECB
:100B6700AA2D7002052D14F9EF12097F1210E90C56
:100B770080DC120FB9AB2CAA2DA92E12102F7F01E2
:010B8700224B
:04108500023800002D
:0E106F00438901758CFC758A66D2A9D28C2249
:03000B00020BE104
:100BE100C0E0C0F0C083C082C0D075D000C000C0DA
:0D0BF10001C002C003C004C005C006C0075B
:100BFE00758CFC758A660539E53970020538FFAECD
:0D0C0E0038120000EF6006753800753900DF
:100C1B00D007D006D005D004D003D002D001D0002D
:0B0C2B00D0D0D082D083D0F0D0E032D7
:100A2800021050E493A3F8E493A34003F68001F284
:100A380008DFF48029E493A3F85407240CC8C333CF
:100A4800C4540F4420C8834004F456800146F6DF9E
:100A5800E4800B010204081020408090107DE47EA1
:100A6800019360BCA3FF543F30E509541FFEE49393
:100A7800A360010ECF54C025E060A840B8E493A35A
:100A8800FAE493A3F8E493A3C8C582C8CAC583CA85
:100A9800F0A3C8C582C8CAC583CADFE9DEE780BE3D
:011089000066
:10093900BB010689828A83E0225002E722BBFE02BC
:09094900E32289828A83E49322EF
:10095200BB010CE58229F582E5833AF583E022505A
:1009620006E92582F8E622BBFE06E92582F8E222A4
:0D097200E58229F582E5833AF583E49322BE
:10097F00BB010689828A83F0225002F722BBFE0157
:02098F00F32251
:10099100C2D5EC30E709B2D5E4C39DFDE49CFCEE81
:1009A10030E715B2D5E4C39FFFE49EFE1209C7C329
:1009B100E49DFDE49CFC80031209C730D507C3E424
:0609C1009FFFE49EFE22F0
:1009C700BC000BBE0029EF8DF084FFADF022E4CC14
:1009D700F875F008EF2FFFEE33FEEC33FCEE9DECDD
:1009E700984005FCEE9DFE0FD5F0E9E4CEFD22ED23
:1009F700F8F5F0EE8420D21CFEADF075F008EF2F6D
:100A0700FFED33FD4007985006D5F0F222C398FD5D
:050A17000FD5F0EA22FA
:00000001FF
