:03000000020A1CD5
:0C0A1C00787FE4F6D8FD75813D020A6386
:100EFB007267626C6564207374617465205B636FE9
:100F0B00756E743D005D3A20000D0A007377315FFA
:100F1B00636C656172007377325F7265636F7665C0
:090F2B00720074696D65723000FA
:08109E000333000000013600DD
:10103E00AE071FEE600B007E027DC7DDFEDEFC807C
:01104E00EFB2
:01104F00227E
:0B10AB00EF1FAC0670011E4C70F62217
:100D6900EF24F8601F24EC602A24DA601A24F86062
:100D79001F24F8602524F8601424FC600D245270A7
:100D890020C2A522C2A622C2A722D2A522D2A62269
:100D9900D2A722C2A7C2A6C2A522D2A7D2A6D2A5ED
:050DA9002263A0FF22FF
:100AA800AE36053674332EF8A607E536C3940340F0
:100AB80063E4F5367BFF7A0E79FB120FE67E007F42
:100AC80003120EBB7BFF7A0F7910120FE67B007AB8
:100AD800007933120FE67BFF7A0F7914120FE6E5DF
:100AE8003364306003D38001C3B392A5E534643026
:100AF8006003D38001C3B392A6E53564306003D3A5
:100B08008001C3B392A77B007A0079337522037FF3
:040B180066120C361F
:010B1C0022B6
:101061007BFF7A0F7917121111D2A7D2A6D2A5222E
:100CD8007BFF7A0F79211211117B007A0079107548
:100CE80018037F66120C88E4F513FB7A007910125A
:100CF8001111E51064306003D38001C3B392A5E5F8
:100D08001164306003D38001C3B392A6E512643046
:090D18006003D38001C3B392A76C
:010D210022AF
:10100B00D3EF94F4EE9401400E7BFF7A0F792D12FF
:0A101B001111B2E97F01227F0022CB
:101071001210251210F51210FC121090D2AF80FE42
:0710EE00D2C4D2C6D2EA22EF
:03001B00020800D8
:10080000C0E0C0F0C083C082C0D075D000C000C0BE
:0D08100001C002C003C004C005C006C0073F
:10081D00750800750900750A00750B00750C003020
:10082D00EA0302091E750903750AE820EA1EE50AA6
:10083D00450960187F017E001210ABE50A150A709C
:10084D00021509E50A450970E202091E20EA0302B4
:10085D0008FF750901750AF430EA1EE50A450960BD
:10086D00187F017E001210ABE50A150A70021509FA
:10087D00E50A450970E202091E750B00750C00753D
:10088D000902750A5820EA1DE50A450960177F011E
:10089D007E001210ABE50A150A70021509E50A452E
:1008AD000970E2806C750900750A1430EA127F0A2E
:1008BD007E001210AB0508E508D3941440ED80516D
:1008CD007437250BF8C000E6C313D000F6E508C356
:1008DD00940840097437250BF8E64480F675080036
:1008ED00050CE50CC394084096050BE50BC3940469
:1008FD00408AE53AF465396013750B007437250BA2
:10090D00F87600050BE50BB404F28005AF39120D36
:01091D006970
:10091E00D007D006D005D004D003D002D001D0002D
:0B092E00D0D0D082D083D0F0D0E032D7
:0710F500D28AD2AAD2B32275
:03001300020DF3E8
:100DF300C0E0C0F0C083C082C0D075D000C000C0C6
:100E030001C002C003C004C005C006C0077F0A12A8
:100E1300103E20B303121061D007D006D005D004D2
:100E2300D003D002D001D000D0D0D082D083D0F074
:030E3300D0E032DA
:0710FC00D288D2A8D2B22273
:03000300020E36B4
:100E3600C0E0C0F0C083C082C0D075D000C000C082
:100E460001C002C003C004C005C006C0077F0A1265
:100E5600103E20B203120CD8D007D006D005D0041D
:100E6600D003D002D001D000D0D0D082D083D0F031
:030E7600D0E03297
:10102500759850438780D2AC53890F438920758BBF
:09103500FA758DFAC2ABD28E22CD
:0810DE008F993099FDC299229F
:0A10B6007F0D1210DE7F0A0210DE2B
:100FE6008B248A258926AB24AA25A92612093960CD
:100FF600130526E5267002052514F9120939FF1294
:0510060010DE80E22273
:06111100120FE60210B609
:100EBB00153D153DA83DA60608A607A83DE6FE086C
:100ECB00E6FFD39409EE64809480400A7C007D0A8F
:100EDB00120991120EBBA83DE6FE08E6FF7C007DD1
:100EEB000A120991ED2430FF1210DE053D053D225B
:0D0B8800153D153DA83DA60608A607153D24
:100B9500A83D08E6FE08E6FFD3940FEE6480948036
:100BA500400A7C007D10120991120B88A83D08E6C9
:100BB500FE08E6FF7C007D10120991AF05A83DEF08
:100BC500F6C36480948AA83DE6500424308002244C
:050BD50037FF1210DEE5
:070BDA00053D053D053D222C
:03002300020E7951
:100E7900C0E0C0F0C083C082C0D075D000C000C03F
:100E890001C002C003C004C005C006C007309807EE
:100E9900AF99120AA8C298D007D006D005D004D0BD
:100EA90003D002D001D000D0D0D082D083D0F0D0EE
:020EB900E03225
:0A10C000AB05AD077F50120F34227C
:0810E600AD077F50120DAE2290
:080C36008F1E8B1F8A2089210B
:100C3E00E51E2522FFE433FED3EF94FFEE6480948D
:100C4E008040037F0022E4F523E523C3952250273D
:100C5E00AD1E051EAB1FAA20A92185238275830018
:100C6E00120952FB7F50120F34EF7002FF227F03E6
:090C7E0012103E052380D27F0113
:010C8700224A
:080C88008F148B158A168917E1
:100C9000E5142518FFE433FED3EF94FFEE6480944F
:100CA0008040037F0022E4F519E519C3951850250B
:100CB000AD140514AB150517E517AA167002051635
:100CC00014F97F50120DAEEF7002FF227F03121055
:070CD0003E051980D47F01ED
:010CD70022FA
:06110300E4FF0FBF0AFC2F
:0111090022C3
:0A10CA00D286D287121103C28622DB
:07105000EF12097F1210D41A
:0A105700C286D287121103D286224E
:020F6500AD07D6
:100F67007B08AF031BEF6024C28774017E00A803D0
:100F7700088005C333CE33CED8F9FFEDF582EF55A0
:0C0F87008224FF9286121103D28780D6CC
:010F9300223B
:100FC0007E08E4FDAF061EEF6019D28730860D74EF
:100FD00001A806088002C333D8FC4205121103C2DF
:050FE0008780E1AF0570
:010FE50022E9
:07110A00C287C286D28722D2
:0A10D400C287D286121103D28722D0
:0C0F9400AE071210CAEE25E0FF120F6538
:100FA000E4FEC287D286121103D28730860D0EEE80
:0F0FB000D394FA40F61210577F0122C2877F00B8
:010FBF00220F
:0F108100120F94EF60037F00221210577F01229D
:100F3400AE07AC03AA05120F96EF60037F0022AF41
:100F440002120F65120FA0EF60037F0022AF04129C
:100F54000F65120FA0EF60037F00221210577F016C
:010F6400226A
:100DAE008D1A8B1B8A1C891DAC071210CAEC120FF0
:100DBE009AEF60037F0022AF1A120F65120FA0EF99
:100DCE0060037F00221210CAEC25E04401120F9C32
:100DDE00EF60037F0022120FC0AB1BAA1CA91D12CD
:050DEE0010507F0122FE
:080D22008B298A2A892BAC05FC
:100D2A00120F94EF60037F0022AF04120F65120FB7
:100D3A00A0EF60037F0022E4FCECC3952C501AABB1
:100D4A0029AA2AA92B8C82758300120952120F9C98
:0E0D5A00EF60037F00220C80E01210577F0133
:010D68002268
:0A0B1D008D2E8B2F8A308931AC0732
:100B27001210CAEC120F9AEF60037F0022AF2E1249
:100B37000F65120FA0EF60037F00221210CAEC2589
:100B4700E04401120F9CEF60037F0022E4FCE532D2
:100B570014FFECC39F501B120FC0AB2F0531E531BB
:100B6700AA307002053014F9EF12097F12110A0C2E
:100B770080DC120FC0AB2FAA30A9311210507F01B1
:010B8700224B
:0410A600023B000009
:0E109000438901758CFC758A66D2A9D28C2228
:03000B00020BE104
:100BE100C0E0C0F0C083C082C0D075D000C000C0DA
:0D0BF10001C002C003C004C005C006C0075B
:100BFE00758CFC758A66053CE53C7002053BFFAEC4
:0D0C0E003B12100BEF6006753B00753C00BB
:100C1B00D007D006D005D004D003D002D001D0002D
:0B0C2B00D0D0D082D083D0F0D0E032D7
:100A2800021071E493A3F8E493A34003F68001F263
:100A380008DFF48029E493A3F85407240CC8C333CF
:100A4800C4540F4420C8834004F456800146F6DF9E
:100A5800E4800B010204081020408090109EE47E80
:100A6800019360BCA3FF543F30E509541FFEE49393
:100A7800A360010ECF54C025E060A840B8E493A35A
:100A8800FAE493A3F8E493A3C8C582C8CAC583CA85
:100A9800F0A3C8C582C8CAC583CADFE9DEE780BE3D
:0110AA000045
:10093900BB010689828A83E0225002E722BBFE02BC
:09094900E32289828A83E49322EF
:10095200BB010CE58229F582E5833AF583E022505A
:1009620006E92582F8E622BBFE06E92582F8E222A4
:0D097200E58229F582E5833AF583E49322BE
:10097F00BB010689828A83F0225002F722BBFE0157
:02098F00F32251
:10099100C2D5EC30E709B2D5E4C39DFDE49CFCEE81
:1009A10030E715B2D5E4C39FFFE49EFE1209C7C329
:1009B100E49DFDE49CFC80031209C730D507C3E424
:0609C1009FFFE49EFE22F0
:1009C700BC000BBE0029EF8DF084FFADF022E4CC14
:1009D700F875F008EF2FFFEE33FEEC33FCEE9DECDD
:1009E700984005FCEE9DFE0FD5F0E9E4CEFD22ED23
:1009F700F8F5F0EE8420D21CFEADF075F008EF2F6D
:100A0700FFED33FD4007985006D5F0F222C398FD5D
:050A17000FD5F0EA22FA
:00000001FF
